:100000005DC2000078C2000076C2000074C2000029
:1000100072C2000070C200006EC200006CC200001C
:100020006AC2000068C2000066C2000064C200002C
:1000300062C2000060C200005EC200005CC200003C
:100040005AC2000058C2000056C2000054C200004C
:1000500052C2000050C200004EC200004CC200005C
:100060004AC2000048C2000046C2000044C200006C
:1000700042C2000040C200003EC200003CC200007C
:100080003AC2000038C2000036C200007F05830576
:100090008305830583058305830583058305830520
:1000A0008305830583058305830583058305830510
:1000B0008305830583058305830583058305830500
:1000C0008305830583055905DB04FA048305690567
:1000D00083058305830583058305830583058305E0
:1000E000830583058305830575058305220583053F
:1000F00083053C0583058305830583058305830507
:100100008305830583054905DB04E404830569054C
:10011000830583058305830583058305830583059F
:10012000830583058305830575058305150583050B
:1001300083052F05FFFFFFFFFF00FFFFFFFFFFFF0E
:1001400000FFFFFFFFFFFF00FFFFFFFFFFFF00FFBC
:10015000FFFFFFFFFF00FFFFFFFFFFFF00FFFFFFAD
:10016000FFFFFF00FFFFFFFFFFFF00FFFFFFFFFF9D
:10017000FF00FFFFFFFFFFFF00FFFFFFFFFFFF008C
:10018000FFFFFFFFFFFF00FFFFFFFFFFFF00FFFF7D
:10019000FFFFFFFF00FFFFFFFFFFFF00FFFFFFFF6D
:1001A000FFFF00FFFFFFFFFFFF00FFFFFFFFFFFF5D
:1001B00000FFFFFFFFFFFF00FFFFFFFFFFFF00FF4C
:1001C000FFFFFFFFFF00FFFFFFFFFFFF00FFFFFF3D
:1001D000FFFFFF00FFFFFFFFFFFF00FFFFFFFFFF2D
:1001E000FF00FFFFFFFFFFFF00FFFFFFFFFFFF001C
:1001F000FFFFFFFFFFFF00FFFFFFFFFFFF00FFFF0D
:10020000FFFFFFFF00FFFFFFFFFFFF00FFFFFFFFFC
:10021000FFFF00FF0000000000FFFF00004F000094
:1002200000FF000700070000FF147F147F1400FF89
:10023000242A7F2A1200FF231308646200FF364934
:1002400055222000FF000503000000FF001C224192
:100250000000FF0041221C0000FF14083E081400AB
:10026000FF08083E080800FF503000000000FF08AB
:100270000808080800FF006060000000FF20100868
:10028000040200FF3E5149453E00FF40427F40408E
:1002900000FF426151494600FF2141454B3100FFBB
:1002A0001814127F1000FF274545453900FF3C4ACE
:1002B00049493000FF017109050300FF36494949EA
:1002C0003600FF064949291E00FF003636000000AF
:1002D000FF005636000000FF081422410000FF1402
:1002E0001414141400FF004122140800FF020151ED
:1002F000090600FF3E415D551E00FF7E1111117E73
:1003000000FF7F4949493600FF3E4141412200FF3D
:100310007F4141221C00FF7F4949494100FF7F097D
:1003200009090100FF3E4149497A00FF7F0808089A
:100330007F00FF00417F410000FF2040413F01005E
:10034000FF7F0814224100FF7F4040404000FF7FB4
:10035000020C027F00FF7F0408107F00FF3E414136
:10036000413E00FF7F0909090600FF3E4151215E21
:1003700000FF7F0919294600FF264949493200FF3D
:1003800001017F010100FF3F4040403F00FF1F206F
:1003900040201F00FF3F4038403F00FF6314081417
:1003A0006300FF070870080700FF615149454300DB
:1003B000FF007F41410000FF020408102000FF0001
:1003C00041417F0000FF040201020400FF40404061
:1003D000404000FF000003050000FF205454547803
:1003E00000FF7F4444443800FF384444444400FF45
:1003F000384444447F00FF385454541800FF040428
:100400007E050500FF085454543C00FF7F08040497
:100410007800FF00447D4000FFFF2040443D00FF86
:10042000FF7F10284400FFFF417F4000FFFFFF7C5B
:10043000047C047800FF7C0804047800FF384444FE
:10044000443800FF7C1414140800FF081414147CB2
:1004500000FF7C08040400FFFF485454542400FFAC
:1004600004043F444400FF3C4040207C00FF1C202B
:1004700040201C00FF3C4030403C00FF4428102836
:100480004400FF0C5050503C00FF4464544C440066
:10049000FF083641410000FF000077000000FF0028
:1004A0004141360800FF08082A1C0800FF081C2AE2
:1004B000080800FFFFFFFFFFFF00FF0011241FBE21
:1004C000CFEFD0E1DEBFCDBF11E0A0E0B1E0E8EBBF
:1004D000FEE000E00BBF02C007900D92AE32B10704
:1004E000D9F721E0AEE2B1E001C01D92A233B2071C
:1004F000E1F71CD3DFC484CD85B3816085BB85B3B0
:100500008D7F85BB089585B3826085BB85B38E7F63
:1005100085BB08958AB38F778ABB85B3877F85BBF8
:1005200085B3846085BB85B38F7E85BB00C085B3F2
:10053000806185BB00C0CF99F6CF8AB380688ABB43
:100540000895CF93C82FE6DFCBBB85B3877F85BBEC
:1005500085B38B7F85BB85B3806185BB00C085B3C8
:100560008F7E85BBCF910895CF93C82FD3DF809125
:100570003101C827CBBB85B3886085BB85B38B7F32
:1005800085BB85B3806185BB00C085B38F7E85BB8D
:10059000CF9108951F93CF93DF93823078F4182F73
:1005A000811102C0A9DF01C0AEDFCEE2D1E0188325
:1005B00080E48A838981C5DF8A81C3DFDF91CF919F
:1005C0001F910895883028F4885480932F0180E08B
:1005D000E1CF08951F93CF93DF93EEE2F1E0138113
:1005E0001382D0E00EC08D2FEDDFC0E007C0C03415
:1005F00011F481E0CFDF80E0B7DFCF5FCC23BCF721
:10060000DF5FD83080F31093310180E0DBDFDF91D2
:10061000CF911F9108958FEF84BB8ABB6DDF8FE36D
:1006200090DF71DF8FE38DDF83EC99E00197F1F7C5
:1006300000C0000061DF80EC84DF65DF80EC81DFDB
:10064000C9CF0895EEE2F1E081818F5F8183803C24
:1006500018F088EB80932F0180E09CCF08950F93D2
:100660001F93CF93DF93C82F80912E01813021F407
:10067000809130018C3710F4CA3009F4E3DFCA30BE
:1006800031F18C2F90E0EC01CC0FDD1FCC0FDD1F82
:10069000CC0FDD1FC81BD90BCC5CDE4F80912E0127
:1006A000811106C080913001803811F481E072DF41
:1006B0008E010F5F1F4FFE0184918F3F41F054DF89
:1006C000EEE2F1E082818F5F8283E801E7CFDF9184
:1006D000CF911F910F910895CF93DF93EC0102C04A
:1006E0002196BDDF88818111FBCFDF91CF910895E5
:1006F000FF920F931F93CF93DF93CDB7DEB72A9767
:100700000FB6F894DEBF0FBECDBF042F6115710583
:100710008105910559F010E036C0E1E0F0E0EC0F02
:10072000FD1FE10FF11D10821F5F01C010E01017C7
:10073000D0F51A3090F337C0611571058105910528
:10074000C1F0F62E2AE030E040E050E088D3622F7E
:10075000732F842F952FE1E0F0E0EC0FFD1FE10FE8
:10076000F11D220F322F330F330F230FF21AF082B5
:1007700009C00B30C0F4E1E0F0E0EC0FFD1FE10F29
:10078000F11D10821F5F1017B8F20DC0E12FF0E0CD
:10079000319781E090E08C0F9D1FE80FF91F808159
:1007A000805D5DDF11501111F1CF2A960FB6F894DC
:1007B000DEBF0FBECDBFDF91CF911F910F91FF9094
:1007C00008951F93CF93DF93CDB7DEB72A970FB667
:1007D000F894DEBF0FBECDBF61157105810591058F
:1007E00059F010E030C0E1E0F0E0EC0FFD1FE10F48
:1007F000F11D10821F5F01C010E01417C0F51A3000
:1008000090F335C0611571058105910591F0262F92
:100810002F70E1E0F0E0EC0FFD1FE10FF11D2083F0
:10082000689413F896958795779567951694D1F700
:1008300009C04B30E0F4E1E0F0E0EC0FFD1FE10F08
:10084000F11D10821F5F1417E8F211C0E12FF0E0D4
:10085000319781E090E08C0F9D1FE80FF91F808198
:100860008A3010F0895C01C0805DF9DE11501111F1
:10087000EDCF2A960FB6F894DEBF0FBECDBFDF9145
:10088000CF911F910895CF92DF92EF92FF92CF9375
:100890006B017C01C42F1BC08C2F90E0019741E0BD
:1008A00050E002C0440F551F8A95E2F7052E000C58
:1008B000660B770B4C215D216E217F2181E0452B5A
:1008C000462B472B09F480E0805DC9DEC150C11181
:1008D000E3CFCF91FF90EF90DF90CF9008958F926C
:1008E0009F92AF92BF92CF92DF92EF92FF926B01F5
:1008F0007C0198D14B015C014FEFFADE8EE2AFDE56
:10090000C501B401BBD19B01AC01C701B60125D122
:1009100020E034E244E759E43FD284D14FEFE8DEEF
:10092000FF90EF90DF90CF90BF90AF909F908F900F
:1009300008954F925F926F927F92AF92BF92EF9223
:10094000FF921F93CF93DF93CDB7DEB7FE013E96A4
:10095000E190F1903F01DAC0853209F0D3C0C701C0
:100960000196D7011196EC9120ED2E0F2A3090F0D0
:100970007C011FEF15C0812F880F982F990F990FB9
:10098000890F8E0F10ED180FBFEFEB1AFB0AD7017E
:10099000EC9102C07C0110E080ED8E0F8A3058F39C
:1009A0008E2F90E0FC01B597E435F10508F0ABC05F
:1009B000EA5BFF4F76C25301B2E0AB0EB11CF3010C
:1009C00080814DDE35019FC05301F2E0AF0EB11CB6
:1009D000D3016D907C9077202CF471946194710810
:1009E0008DE23DDEB301770C880B990B412F80DE41
:1009F000350189C05301B4E0AB0EB11CF301408056
:100A0000518062807380772054F470946094509485
:100A10004094411C511C611C711C8DE220DE412F51
:100A2000C301B20165DE35016EC05301F2E0AF0EC5
:100A3000B11CD3016D917C9180E090E0412F58DE94
:100A4000350161C05301B4E0AB0EB11CF30160810C
:100A5000718182819381412F4BDE350154C0530156
:100A6000F2E0AF0EB11CD3016D917C9180E090E07B
:100A7000412FA7DE350147C05301B4E0AB0EB11CD6
:100A8000F3016081718182819381412F9ADE35016A
:100A90003AC05301F2E0AF0EB11CD3016D917C91CD
:100AA0001F3F09F410E180E090E0412FECDE3501BA
:100AB0002AC05301B4E0AB0EB11CF3016081718117
:100AC000828193811F3F09F410E1412FDCDE350163
:100AD0001AC05301F4E0AF0EB11CD3016D917D91AA
:100AE0008D919C91FCDE35010EC05301B2E0AB0E3E
:100AF000B11CF30180819181EFDD350104C085E2F5
:100B0000AEDD01C0ACDDFFEFEF1AFF0AD7018C911B
:100B1000811122CFDF91CF911F91FF90EF90BF9075
:100B2000AF907F906F905F904F90089574DD80E05C
:100B300091E09F938F93FDDE84E044DD8DE091E0B2
:100B40009F938F93F6DE87E03DDD87E191E0C4DD82
:100B50000F900F900F900F90FFCF5058BB27AA27F0
:100B60000ED0E0C0D1D030F0D6D020F031F49F3F8D
:100B700011F41EF4C6C00EF4E095E7FBBCC0E92FEB
:100B8000E2D080F3BA17620773078407950718F05D
:100B900071F49EF5FAC00EF4E0950B2EBA2FA02D3D
:100BA0000B01B90190010C01CA01A0011124FF271A
:100BB000591B99F0593F50F4503E68F11A16F04015
:100BC000A22F232F342F4427585FF3CF4695379514
:100BD0002795A795F0405395C9F77EF41F16BA0BD9
:100BE000620B730B840BBAF09150A1F0FF0FBB1F87
:100BF000661F771F881FC2F70EC0BA0F621F731FD0
:100C0000841F48F4879577956795B795F7959E3F2C
:100C100008F0B3CF9395880F08F09927EE0F9795BA
:100C20008795089598D088F09F5790F0B92F99270D
:100C3000B751A0F0D1F0660F771F881F991F1AF0E7
:100C4000BA95C9F712C0B13081F09FD0B1E00895D4
:100C50009CC0672F782F8827B85F39F0B93FCCF355
:100C6000869577956795B395D9F73EF490958095DD
:100C7000709561957F4F8F4F9F4F0895E89409C0FD
:100C800097FB3EF490958095709561957F4F8F4FBF
:100C90009F4F9923A9F0F92F96E9BB279395F695D5
:100CA000879577956795B795F111F8CFFAF4BB0F53
:100CB00011F460FF1BC06F5F7F4F8F4F9F4F16C0B7
:100CC000882311F096E911C0772321F09EE8872F41
:100CD000762F05C0662371F096E8862F70E060E0FD
:100CE0002AF09A95660F771F881FDAF7880F969576
:100CF000879597F9089597F99F6780E870E060E01D
:100D000008959FEF80EC089500240A9416161706A4
:100D100018060906089500240A94121613061406EC
:100D200005060895092E0394000C11F4882352F04F
:100D3000BB0F40F4BF2B11F460FF04C06F5F7F4F07
:100D40008F4F9F4F089557FD9058440F551F59F0EE
:100D50005F3F71F04795880F97FB991F61F09F3FA8
:100D600079F087950895121613061406551FF2CFD1
:100D70004695F1DF08C0161617061806991FF1CF21
:100D800086957105610508940895E894BB27662748
:100D90007727CB0197F908950BD0C4CFB5DF28F0A2
:100DA000BADF18F0952309F0A6CFABCF1124EECF10
:100DB000CADFA0F3959FD1F3950F50E0551F629FB6
:100DC000F001729FBB27F00DB11D639FAA27F00DA4
:100DD000B11DAA1F649F6627B00DA11D661F829FCB
:100DE0002227B00DA11D621F739FB00DA11D621FB0
:100DF000839FA00D611D221F749F3327A00D611DCD
:100E0000231F849F600D211D822F762F6A2F1124AE
:100E10009F5750408AF0E1F088234AF0EE0FFF1F01
:100E2000BB1F661F771F881F91505040A9F79E3F38
:100E3000510570F060CFAACF5F3FECF3983EDCF332
:100E4000869577956795B795F795E7959F5FC1F775
:100E5000FE2B880F911D9695879597F90895A1E22D
:100E60001A2EAA1BBB1BFD010DC0AA1FBB1FEE1F24
:100E7000FF1FA217B307E407F50720F0A21BB30B6F
:100E8000E40BF50B661F771F881F991F1A9469F7EB
:100E900060957095809590959B01AC01BD01CF0147
:100EA0000895EE0FFF1F0024001C0BBE0790F69163
:080EB000E02D0994F894FFCF36
:100EB80048656C6C6F20576F726C6421002A265E3F
:100EC80025242340217E0057656C6C207468697363
:0E0ED8002069732074686520656E6421000037
:00000001FF
